:02000000F129E4
:10000800FF00030E8301CB000A08CC008A017008A8
:10001800A0000B1D2728C50A0319C60A803046060A
:10002800F00080307002031D1B283C304502031C81
:1000380024284708D200862170088800C501C60117
:100048000B119B3081002008F0004C088A004B0EF1
:080058008300FF0E7F0E09007A
:0E006000533083120313FD00FD0B34280800FB
:10006E00243083120313FC00B530FD00FD0B3D2838
:0A007E00FC0B3D2800000000080004
:0C00880000000000000000000000080064
:0E0094008312031322088A002108820008004C
:1000A20083120313FB01FA01F9018030F800F10C0D
:1000B200F00C031C65287408F90775080318750FFE
:1000C200FA070318FB0A0310F01F6D287408FA07D9
:1000D20075080318750FFB07FB0CFA0CF90CF80CEA
:1000E200031C58287B08F3007A08F2007908F10013
:0600F2007808F000080090
:1000F80083120313D11B8228861183288615511B6E
:100108008728061188280615D11A8C2886108D286C
:100118008614511A91280610922806144918962810
:10012800061697280612861644208612D1199E288C
:1001380086119F2886155119A3280611A42806158B
:10014800D118A8288610A92886145118AD28061099
:10015800AE2806144918B2280616B32806128616C1
:1001680044208612491CBA283720BB2830200800B2
:10017800831603131208013EF000F1010318F10A77
:1001880083124D08F400F50151200630F200700882
:10019800F4007108F50072080319D728F50CF40C5F
:1001A800F513FF3ED0280430F1007408F000710800
:1001B8000319E228F00D7010FF3EDC28303070057E
:1001C800F3007408F0007508F100F10CF00CF1135D
:1001D800F10CF00CF11370089B000F309D057308AB
:0401E8009D0408006A
:0C01EC00831203139B011D129D120800DA
:0E01F8000030831203138C1A0130F00008004F
:100206001529803083120313CD002829C030CD0074
:1002160028299430CD002829D430CD0028298030D3
:10022600CD002829831203134D08013A0319042926
:100236004D08023A031909294D08033A03190C29F6
:100246004D08043A03190F2912294E03F0004D08F0
:10025600F0077008CD0049147008D1007C204910C1
:0A0266004F08D1007C204914080065
:1002700083160313861206120610861006118611C5
:100280008312861206128611061186100610372078
:10029000372037208614061486164420861237200D
:1002A0008616442086123720861644208612372070
:1002B00006108616442086123720861644208612A1
:1002C000861086158616442086123720861106145D
:1002D0008616442086120610861644208612372081
:1002E000861644208612061486164420861237206D
:1002F00006108616442086128615061586140614E6
:0C0300008616442086123720491408009D
:10030C00DF30831203135202031C8F29FF30F000DD
:10031C00C129BF305202031C9629FE30F000C129BE
:10032C009F305202031C9D29FC30F000C1297F3004
:10033C005202031CA429F830F000C1295F3052028C
:10034C00031CAB29F030F000C1293F305202031CD2
:10035C00B229E030F000C1291F305202031CB92928
:10036C00C030F000C1295208003C0318C02980306D
:08037C00F000C129F0010800A6
:10038400831203131A08F100981CCA2918121816AC
:060394007108F0000800F2
:10039A004A208A110A128000840AA10A0319A20AB1
:0803AA00F003031DCD2908003A
:1003B200831603138710831212150C309D04080054
:1003C20083160313981690308312980083168717AA
:1003D200071383128C1EF0291A08F000EA2908007C
:1003E2008316031788018901831287138813031365
:1003F2008701831687018312121092100930831627
:100402009200F620D921FF30CD00BC200A3083169D
:1004120099001815E1210330FB008A30FC005530A9
:10042200FD00FD0B122AFC0B122AFB0B122A000004
:10043200000038210C30D1007C200130D1007C201A
:10044200A3012130230203182D2A2308243E84000D
:1004520020308000A30A222A83168801FF308312EB
:100462008800C501C601C701A3010130CA000130DD
:10047200C8008430831681009B3083128100A03033
:100482008B00FC2070080319582AC2217008C7008B
:100492007008013A031D4E2A592A213023020318FB
:1004A200572A2308243E840047088000A30A422AD0
:1004B200C701A301213023020318742A4A08CD0080
:1004C2004808CE002308243E84000008CF00032100
:1004D200C80A23080F3A031D722A0130C8000230ED
:1004E200CA00A30A5B2AFC20700803197E2AC221D3
:0E04F2007008C7007008CD00BC20742A7F2A55
:04400E00F22F000786
:00000001FF
